{
  "_format": "hh-sol-artifact-1",
  "contractName": "PiggyBank",
  "sourceName": "contracts/PiggyBank .sol",
  "abi": [
    {
      "inputs": [],
      "stateMutability": "nonpayable",
      "type": "constructor"
    },
    {
      "inputs": [],
      "name": "checkContractBalance",
      "outputs": [
        {
          "internalType": "uint256",
          "name": "",
          "type": "uint256"
        }
      ],
      "stateMutability": "view",
      "type": "function"
    },
    {
      "inputs": [
        {
          "internalType": "bytes32",
          "name": "subPiggyBankId",
          "type": "bytes32"
        },
        {
          "internalType": "uint256",
          "name": "_withdrawalTime",
          "type": "uint256"
        }
      ],
      "name": "createSubPiggyBank",
      "outputs": [],
      "stateMutability": "nonpayable",
      "type": "function"
    },
    {
      "inputs": [
        {
          "internalType": "bytes32",
          "name": "subPiggyBankId",
          "type": "bytes32"
        }
      ],
      "name": "deposit",
      "outputs": [],
      "stateMutability": "payable",
      "type": "function"
    },
    {
      "inputs": [
        {
          "internalType": "bytes32",
          "name": "subPiggyBankId",
          "type": "bytes32"
        }
      ],
      "name": "emergencyWithdraw",
      "outputs": [],
      "stateMutability": "nonpayable",
      "type": "function"
    },
    {
      "inputs": [],
      "name": "getAllOwners",
      "outputs": [
        {
          "internalType": "address[]",
          "name": "",
          "type": "address[]"
        }
      ],
      "stateMutability": "view",
      "type": "function"
    },
    {
      "inputs": [],
      "name": "getAllSubPiggyBankIds",
      "outputs": [
        {
          "internalType": "bytes32[]",
          "name": "",
          "type": "bytes32[]"
        }
      ],
      "stateMutability": "view",
      "type": "function"
    },
    {
      "inputs": [],
      "name": "getFeeBalance",
      "outputs": [
        {
          "internalType": "uint256",
          "name": "",
          "type": "uint256"
        }
      ],
      "stateMutability": "view",
      "type": "function"
    },
    {
      "inputs": [
        {
          "internalType": "bytes32",
          "name": "subPiggyBankId",
          "type": "bytes32"
        }
      ],
      "name": "getSubPiggyBankData",
      "outputs": [
        {
          "internalType": "uint256",
          "name": "",
          "type": "uint256"
        },
        {
          "internalType": "uint256",
          "name": "",
          "type": "uint256"
        },
        {
          "internalType": "address",
          "name": "",
          "type": "address"
        }
      ],
      "stateMutability": "view",
      "type": "function"
    },
    {
      "inputs": [
        {
          "internalType": "address",
          "name": "_owner",
          "type": "address"
        }
      ],
      "name": "getSubPiggyBankDataForAddress",
      "outputs": [
        {
          "internalType": "bytes32[]",
          "name": "",
          "type": "bytes32[]"
        },
        {
          "internalType": "uint256[]",
          "name": "",
          "type": "uint256[]"
        },
        {
          "internalType": "uint256[]",
          "name": "",
          "type": "uint256[]"
        }
      ],
      "stateMutability": "view",
      "type": "function"
    },
    {
      "inputs": [],
      "name": "getTotalBalance",
      "outputs": [
        {
          "internalType": "uint256",
          "name": "",
          "type": "uint256"
        }
      ],
      "stateMutability": "view",
      "type": "function"
    },
    {
      "inputs": [
        {
          "internalType": "address",
          "name": "_admin",
          "type": "address"
        }
      ],
      "name": "setAdmin",
      "outputs": [],
      "stateMutability": "nonpayable",
      "type": "function"
    },
    {
      "inputs": [
        {
          "internalType": "bytes32",
          "name": "subPiggyBankId",
          "type": "bytes32"
        },
        {
          "internalType": "uint256",
          "name": "amount",
          "type": "uint256"
        }
      ],
      "name": "withdraw",
      "outputs": [],
      "stateMutability": "nonpayable",
      "type": "function"
    },
    {
      "inputs": [
        {
          "internalType": "bytes32",
          "name": "subPiggyBankId",
          "type": "bytes32"
        }
      ],
      "name": "withdrawAllFromSubPiggy",
      "outputs": [],
      "stateMutability": "nonpayable",
      "type": "function"
    },
    {
      "inputs": [],
      "name": "withdrawBalance",
      "outputs": [],
      "stateMutability": "nonpayable",
      "type": "function"
    },
    {
      "inputs": [],
      "name": "withdrawFee",
      "outputs": [],
      "stateMutability": "nonpayable",
      "type": "function"
    },
    {
      "stateMutability": "payable",
      "type": "receive"
    }
  ],
  "bytecode": "0x608060405234801561001057600080fd5b50336000806101000a81548173ffffffffffffffffffffffffffffffffffffffff021916908373ffffffffffffffffffffffffffffffffffffffff16021790555033600160006101000a81548173ffffffffffffffffffffffffffffffffffffffff021916908373ffffffffffffffffffffffffffffffffffffffff160217905550612a26806100a16000396000f3fe6080604052600436106100ec5760003560e01c8063704b6c021161008a578063b214faa511610059578063b214faa5146102c7578063cc8f225d146102e3578063d4c30ceb14610322578063e941fa781461034d576100f3565b8063704b6c021461020d57806375870d651461023657806398bede0f1461025f5780639bacd8aa1461029e576100f3565b806312b58349116100c657806312b583491461017557806316c12746146101a057806350312c9e146101cb5780635fd8c710146101f6576100f3565b8063040cf020146100f85780630cab4d5f146101215780631211e19a1461014a576100f3565b366100f357005b600080fd5b34801561010457600080fd5b5061011f600480360381019061011a9190611c4f565b610364565b005b34801561012d57600080fd5b5061014860048036038101906101439190611c4f565b6105f2565b005b34801561015657600080fd5b5061015f610875565b60405161016c9190611d4d565b60405180910390f35b34801561018157600080fd5b5061018a61090a565b6040516101979190611d7e565b60405180910390f35b3480156101ac57600080fd5b506101b56109fe565b6040516101c29190611e89565b60405180910390f35b3480156101d757600080fd5b506101e0610b1c565b6040516101ed9190611d7e565b60405180910390f35b34801561020257600080fd5b5061020b610bb3565b005b34801561021957600080fd5b50610234600480360381019061022f9190611ed7565b610cf3565b005b34801561024257600080fd5b5061025d60048036038101906102589190611f04565b610dc5565b005b34801561026b57600080fd5b5061028660048036038101906102819190611ed7565b61100c565b60405161029593929190611fef565b60405180910390f35b3480156102aa57600080fd5b506102c560048036038101906102c09190611f04565b61136a565b005b6102e160048036038101906102dc9190611f04565b61144b565b005b3480156102ef57600080fd5b5061030a60048036038101906103059190611f04565b611615565b6040516103199392919061204a565b60405180910390f35b34801561032e57600080fd5b50610337611712565b6040516103449190611d7e565b60405180910390f35b34801561035957600080fd5b506103626117ab565b005b8160036000828152602001908152602001600020600101544210156103be576040517f08c379a00000000000000000000000000000000000000000000000000000000081526004016103b5906120de565b60405180910390fd5b60008211610401576040517f08c379a00000000000000000000000000000000000000000000000000000000081526004016103f89061214a565b60405180910390fd5b816003600085815260200190815260200160002060000154101561045a576040517f08c379a0000000000000000000000000000000000000000000000000000000008152600401610451906121dc565b60405180910390fd5b3373ffffffffffffffffffffffffffffffffffffffff166003600085815260200190815260200160002060020160009054906101000a900473ffffffffffffffffffffffffffffffffffffffff1673ffffffffffffffffffffffffffffffffffffffff16146104fe576040517f08c379a00000000000000000000000000000000000000000000000000000000081526004016104f59061226e565b60405180910390fd5b6000610509836118f5565b90506000818461051991906122bd565b90506000811161055e576040517f08c379a000000000000000000000000000000000000000000000000000000000815260040161055590612363565b60405180910390fd5b3373ffffffffffffffffffffffffffffffffffffffff166108fc829081150290604051600060405180830381858888f193505050501580156105a4573d6000803e3d6000fd5b50836003600087815260200190815260200160002060000160008282546105cb91906122bd565b9250508190555081600260008282546105e49190612383565b925050819055505050505050565b60008111610635576040517f08c379a000000000000000000000000000000000000000000000000000000000815260040161062c90612429565b60405180910390fd5b600060036000848152602001908152602001600020600101541461068e576040517f08c379a000000000000000000000000000000000000000000000000000000000815260040161068590612495565b60405180910390fd5b806003600084815260200190815260200160002060010181905550336003600084815260200190815260200160002060020160006101000a81548173ffffffffffffffffffffffffffffffffffffffff021916908373ffffffffffffffffffffffffffffffffffffffff160217905550600460003373ffffffffffffffffffffffffffffffffffffffff1673ffffffffffffffffffffffffffffffffffffffff168152602001908152602001600020829080600181540180825580915050600190039060005260206000200160009091909190915055600660003373ffffffffffffffffffffffffffffffffffffffff1673ffffffffffffffffffffffffffffffffffffffff16815260200190815260200160002060009054906101000a900460ff16610871576001600660003373ffffffffffffffffffffffffffffffffffffffff1673ffffffffffffffffffffffffffffffffffffffff16815260200190815260200160002060006101000a81548160ff0219169083151502179055506005339080600181540180825580915050600190039060005260206000200160009091909190916101000a81548173ffffffffffffffffffffffffffffffffffffffff021916908373ffffffffffffffffffffffffffffffffffffffff1602179055505b5050565b6060600460003373ffffffffffffffffffffffffffffffffffffffff1673ffffffffffffffffffffffffffffffffffffffff16815260200190815260200160002080548060200260200160405190810160405280929190818152602001828054801561090057602002820191906000526020600020905b8154815260200190600101908083116108ec575b5050505050905090565b6000806000905060005b600460003373ffffffffffffffffffffffffffffffffffffffff1673ffffffffffffffffffffffffffffffffffffffff168152602001908152602001600020805490508110156109f6576000600460003373ffffffffffffffffffffffffffffffffffffffff1673ffffffffffffffffffffffffffffffffffffffff16815260200190815260200160002082815481106109b1576109b06124b5565b5b906000526020600020015490506003600082815260200190815260200160002060000154836109e09190612383565b92505080806109ee906124e4565b915050610914565b508091505090565b6060600160009054906101000a900473ffffffffffffffffffffffffffffffffffffffff1673ffffffffffffffffffffffffffffffffffffffff163373ffffffffffffffffffffffffffffffffffffffff1614610a90576040517f08c379a0000000000000000000000000000000000000000000000000000000008152600401610a879061259e565b60405180910390fd5b6005805480602002602001604051908101604052809291908181526020018280548015610b1257602002820191906000526020600020905b8160009054906101000a900473ffffffffffffffffffffffffffffffffffffffff1673ffffffffffffffffffffffffffffffffffffffff1681526020019060010190808311610ac8575b5050505050905090565b60008060009054906101000a900473ffffffffffffffffffffffffffffffffffffffff1673ffffffffffffffffffffffffffffffffffffffff163373ffffffffffffffffffffffffffffffffffffffff1614610bad576040517f08c379a0000000000000000000000000000000000000000000000000000000008152600401610ba490612630565b60405180910390fd5b47905090565b60008054906101000a900473ffffffffffffffffffffffffffffffffffffffff1673ffffffffffffffffffffffffffffffffffffffff163373ffffffffffffffffffffffffffffffffffffffff1614610c41576040517f08c379a0000000000000000000000000000000000000000000000000000000008152600401610c3890612630565b60405180910390fd5b600047905060008111610c89576040517f08c379a0000000000000000000000000000000000000000000000000000000008152600401610c80906126c2565b60405180910390fd5b60008054906101000a900473ffffffffffffffffffffffffffffffffffffffff1673ffffffffffffffffffffffffffffffffffffffff166108fc829081150290604051600060405180830381858888f19350505050158015610cef573d6000803e3d6000fd5b5050565b60008054906101000a900473ffffffffffffffffffffffffffffffffffffffff1673ffffffffffffffffffffffffffffffffffffffff163373ffffffffffffffffffffffffffffffffffffffff1614610d81576040517f08c379a0000000000000000000000000000000000000000000000000000000008152600401610d7890612630565b60405180910390fd5b80600160006101000a81548173ffffffffffffffffffffffffffffffffffffffff021916908373ffffffffffffffffffffffffffffffffffffffff16021790555050565b600160009054906101000a900473ffffffffffffffffffffffffffffffffffffffff1673ffffffffffffffffffffffffffffffffffffffff163373ffffffffffffffffffffffffffffffffffffffff1614610e55576040517f08c379a0000000000000000000000000000000000000000000000000000000008152600401610e4c9061259e565b60405180910390fd5b6000600360008381526020019081526020016000209050600073ffffffffffffffffffffffffffffffffffffffff168160020160009054906101000a900473ffffffffffffffffffffffffffffffffffffffff1673ffffffffffffffffffffffffffffffffffffffff1603610eff576040517f08c379a0000000000000000000000000000000000000000000000000000000008152600401610ef69061272e565b60405180910390fd5b60008160000154905060006064600583610f19919061274e565b610f2391906127bf565b905060008183610f3391906122bd565b905060008111610f78576040517f08c379a0000000000000000000000000000000000000000000000000000000008152600401610f6f90612363565b60405180910390fd5b8360020160009054906101000a900473ffffffffffffffffffffffffffffffffffffffff1673ffffffffffffffffffffffffffffffffffffffff166108fc829081150290604051600060405180830381858888f19350505050158015610fe2573d6000803e3d6000fd5b508160026000828254610ff59190612383565b925050819055506110058561191c565b5050505050565b6060806060600160009054906101000a900473ffffffffffffffffffffffffffffffffffffffff1673ffffffffffffffffffffffffffffffffffffffff163373ffffffffffffffffffffffffffffffffffffffff16146110a1576040517f08c379a00000000000000000000000000000000000000000000000000000000081526004016110989061259e565b60405180910390fd5b6000600460008673ffffffffffffffffffffffffffffffffffffffff1673ffffffffffffffffffffffffffffffffffffffff16815260200190815260200160002080548060200260200160405190810160405280929190818152602001828054801561112c57602002820191906000526020600020905b815481526020019060010190808311611118575b5050505050905060008151905060008167ffffffffffffffff811115611155576111546127f0565b5b6040519080825280602002602001820160405280156111835781602001602082028036833780820191505090505b50905060008267ffffffffffffffff8111156111a2576111a16127f0565b5b6040519080825280602002602001820160405280156111d05781602001602082028036833780820191505090505b50905060008367ffffffffffffffff8111156111ef576111ee6127f0565b5b60405190808252806020026020018201604052801561121d5781602001602082028036833780820191505090505b50905060005b848110156113545760008682815181106112405761123f6124b5565b5b602002602001015190508a73ffffffffffffffffffffffffffffffffffffffff166003600083815260200190815260200160002060020160009054906101000a900473ffffffffffffffffffffffffffffffffffffffff1673ffffffffffffffffffffffffffffffffffffffff160361134057808583815181106112c7576112c66124b5565b5b60200260200101818152505060036000828152602001908152602001600020600001548483815181106112fd576112fc6124b5565b5b6020026020010181815250506003600082815260200190815260200160002060010154838381518110611333576113326124b5565b5b6020026020010181815250505b50808061134c906124e4565b915050611223565b5082828297509750975050505050509193909250565b8060036000828152602001908152602001600020600101544210156113c4576040517f08c379a00000000000000000000000000000000000000000000000000000000081526004016113bb906120de565b60405180910390fd5b3073ffffffffffffffffffffffffffffffffffffffff1663040cf0208360036000868152602001908152602001600020600001546040518363ffffffff1660e01b815260040161141592919061282e565b600060405180830381600087803b15801561142f57600080fd5b505af1158015611443573d6000803e3d6000fd5b505050505050565b80600360008281526020019081526020016000206001015442106114a4576040517f08c379a000000000000000000000000000000000000000000000000000000000815260040161149b906128a3565b60405180910390fd5b600034116114e7576040517f08c379a00000000000000000000000000000000000000000000000000000000081526004016114de9061290f565b60405180910390fd5b6000600360008481526020019081526020016000206001015411611540576040517f08c379a00000000000000000000000000000000000000000000000000000000081526004016115379061272e565b60405180910390fd5b3373ffffffffffffffffffffffffffffffffffffffff166003600084815260200190815260200160002060020160009054906101000a900473ffffffffffffffffffffffffffffffffffffffff1673ffffffffffffffffffffffffffffffffffffffff16146115e4576040517f08c379a00000000000000000000000000000000000000000000000000000000081526004016115db9061226e565b60405180910390fd5b3460036000848152602001908152602001600020600001600082825461160a9190612383565b925050819055505050565b60008060003373ffffffffffffffffffffffffffffffffffffffff166003600086815260200190815260200160002060020160009054906101000a900473ffffffffffffffffffffffffffffffffffffffff1673ffffffffffffffffffffffffffffffffffffffff16146116be576040517f08c379a00000000000000000000000000000000000000000000000000000000081526004016116b59061226e565b60405180910390fd5b6000600360008681526020019081526020016000209050806000015481600101548260020160009054906101000a900473ffffffffffffffffffffffffffffffffffffffff16935093509350509193909250565b60008060009054906101000a900473ffffffffffffffffffffffffffffffffffffffff1673ffffffffffffffffffffffffffffffffffffffff163373ffffffffffffffffffffffffffffffffffffffff16146117a3576040517f08c379a000000000000000000000000000000000000000000000000000000000815260040161179a90612630565b60405180910390fd5b600254905090565b60008054906101000a900473ffffffffffffffffffffffffffffffffffffffff1673ffffffffffffffffffffffffffffffffffffffff163373ffffffffffffffffffffffffffffffffffffffff1614611839576040517f08c379a000000000000000000000000000000000000000000000000000000000815260040161183090612630565b60405180910390fd5b6000600254905060008111611883576040517f08c379a000000000000000000000000000000000000000000000000000000000815260040161187a906129a1565b60405180910390fd5b600060028190555060008054906101000a900473ffffffffffffffffffffffffffffffffffffffff1673ffffffffffffffffffffffffffffffffffffffff166108fc829081150290604051600060405180830381858888f193505050501580156118f1573d6000803e3d6000fd5b5050565b600080600290506064818461190a919061274e565b61191491906127bf565b915050919050565b60006003600083815260200190815260200160002060020160009054906101000a900473ffffffffffffffffffffffffffffffffffffffff16905060005b600460008373ffffffffffffffffffffffffffffffffffffffff1673ffffffffffffffffffffffffffffffffffffffff16815260200190815260200160002080549050811015611b8c5782600460008473ffffffffffffffffffffffffffffffffffffffff1673ffffffffffffffffffffffffffffffffffffffff16815260200190815260200160002082815481106119f6576119f56124b5565b5b906000526020600020015403611b7957600460008373ffffffffffffffffffffffffffffffffffffffff1673ffffffffffffffffffffffffffffffffffffffff1681526020019081526020016000206001600460008573ffffffffffffffffffffffffffffffffffffffff1673ffffffffffffffffffffffffffffffffffffffff16815260200190815260200160002080549050611a9491906122bd565b81548110611aa557611aa46124b5565b5b9060005260206000200154600460008473ffffffffffffffffffffffffffffffffffffffff1673ffffffffffffffffffffffffffffffffffffffff1681526020019081526020016000208281548110611b0157611b006124b5565b5b9060005260206000200181905550600460008373ffffffffffffffffffffffffffffffffffffffff1673ffffffffffffffffffffffffffffffffffffffff168152602001908152602001600020805480611b5e57611b5d6129c1565b5b60019003818190600052602060002001600090559055611b8c565b8080611b84906124e4565b91505061195a565b506003600083815260200190815260200160002060008082016000905560018201600090556002820160006101000a81549073ffffffffffffffffffffffffffffffffffffffff021916905550505050565b600080fd5b6000819050919050565b611bf681611be3565b8114611c0157600080fd5b50565b600081359050611c1381611bed565b92915050565b6000819050919050565b611c2c81611c19565b8114611c3757600080fd5b50565b600081359050611c4981611c23565b92915050565b60008060408385031215611c6657611c65611bde565b5b6000611c7485828601611c04565b9250506020611c8585828601611c3a565b9150509250929050565b600081519050919050565b600082825260208201905092915050565b6000819050602082019050919050565b611cc481611be3565b82525050565b6000611cd68383611cbb565b60208301905092915050565b6000602082019050919050565b6000611cfa82611c8f565b611d048185611c9a565b9350611d0f83611cab565b8060005b83811015611d40578151611d278882611cca565b9750611d3283611ce2565b925050600181019050611d13565b5085935050505092915050565b60006020820190508181036000830152611d678184611cef565b905092915050565b611d7881611c19565b82525050565b6000602082019050611d936000830184611d6f565b92915050565b600081519050919050565b600082825260208201905092915050565b6000819050602082019050919050565b600073ffffffffffffffffffffffffffffffffffffffff82169050919050565b6000611df082611dc5565b9050919050565b611e0081611de5565b82525050565b6000611e128383611df7565b60208301905092915050565b6000602082019050919050565b6000611e3682611d99565b611e408185611da4565b9350611e4b83611db5565b8060005b83811015611e7c578151611e638882611e06565b9750611e6e83611e1e565b925050600181019050611e4f565b5085935050505092915050565b60006020820190508181036000830152611ea38184611e2b565b905092915050565b611eb481611de5565b8114611ebf57600080fd5b50565b600081359050611ed181611eab565b92915050565b600060208284031215611eed57611eec611bde565b5b6000611efb84828501611ec2565b91505092915050565b600060208284031215611f1a57611f19611bde565b5b6000611f2884828501611c04565b91505092915050565b600081519050919050565b600082825260208201905092915050565b6000819050602082019050919050565b611f6681611c19565b82525050565b6000611f788383611f5d565b60208301905092915050565b6000602082019050919050565b6000611f9c82611f31565b611fa68185611f3c565b9350611fb183611f4d565b8060005b83811015611fe2578151611fc98882611f6c565b9750611fd483611f84565b925050600181019050611fb5565b5085935050505092915050565b600060608201905081810360008301526120098186611cef565b9050818103602083015261201d8185611f91565b905081810360408301526120318184611f91565b9050949350505050565b61204481611de5565b82525050565b600060608201905061205f6000830186611d6f565b61206c6020830185611d6f565b612079604083018461203b565b949350505050565b600082825260208201905092915050565b7f5769746864726177616c7320617265206e6f742079657420616c6c6f77656400600082015250565b60006120c8601f83612081565b91506120d382612092565b602082019050919050565b600060208201905081810360008301526120f7816120bb565b9050919050565b7f416d6f756e74206d7573742062652067726561746572207468616e207a65726f600082015250565b6000612134602083612081565b915061213f826120fe565b602082019050919050565b6000602082019050818103600083015261216381612127565b9050919050565b7f496e73756666696369656e74207375622d70696767792062616e6b2062616c6160008201527f6e63650000000000000000000000000000000000000000000000000000000000602082015250565b60006121c6602383612081565b91506121d18261216a565b604082019050919050565b600060208201905081810360008301526121f5816121b9565b9050919050565b7f596f7520617265206e6f7420746865206f776e6572206f66207468697320737560008201527f622d70696767792062616e6b0000000000000000000000000000000000000000602082015250565b6000612258602c83612081565b9150612263826121fc565b604082019050919050565b600060208201905081810360008301526122878161224b565b9050919050565b7f4e487b7100000000000000000000000000000000000000000000000000000000600052601160045260246000fd5b60006122c882611c19565b91506122d383611c19565b92508282039050818111156122eb576122ea61228e565b5b92915050565b7f5769746864726177616c20616d6f756e7420616674657220666565206973207a60008201527f65726f0000000000000000000000000000000000000000000000000000000000602082015250565b600061234d602383612081565b9150612358826122f1565b604082019050919050565b6000602082019050818103600083015261237c81612340565b9050919050565b600061238e82611c19565b915061239983611c19565b92508282019050808211156123b1576123b061228e565b5b92915050565b7f5769746864726177616c2074696d65206d75737420626520677265617465722060008201527f7468616e207a65726f0000000000000000000000000000000000000000000000602082015250565b6000612413602983612081565b915061241e826123b7565b604082019050919050565b6000602082019050818103600083015261244281612406565b9050919050565b7f5375622d70696767792062616e6b20616c726561647920657869737473000000600082015250565b600061247f601d83612081565b915061248a82612449565b602082019050919050565b600060208201905081810360008301526124ae81612472565b9050919050565b7f4e487b7100000000000000000000000000000000000000000000000000000000600052603260045260246000fd5b60006124ef82611c19565b91507fffffffffffffffffffffffffffffffffffffffffffffffffffffffffffffffff82036125215761252061228e565b5b600182019050919050565b7f4f6e6c79207468652061646d696e2063616e2063616c6c20746869732066756e60008201527f6374696f6e000000000000000000000000000000000000000000000000000000602082015250565b6000612588602583612081565b91506125938261252c565b604082019050919050565b600060208201905081810360008301526125b78161257b565b9050919050565b7f4f6e6c7920746865206f776e65722063616e2063616c6c20746869732066756e60008201527f6374696f6e000000000000000000000000000000000000000000000000000000602082015250565b600061261a602583612081565b9150612625826125be565b604082019050919050565b600060208201905081810360008301526126498161260d565b9050919050565b7f4e6f2062616c616e636520617661696c61626c6520666f72207769746864726160008201527f77616c0000000000000000000000000000000000000000000000000000000000602082015250565b60006126ac602383612081565b91506126b782612650565b604082019050919050565b600060208201905081810360008301526126db8161269f565b9050919050565b7f5375622d70696767792062616e6b20646f6573206e6f74206578697374000000600082015250565b6000612718601d83612081565b9150612723826126e2565b602082019050919050565b600060208201905081810360008301526127478161270b565b9050919050565b600061275982611c19565b915061276483611c19565b925082820261277281611c19565b915082820484148315176127895761278861228e565b5b5092915050565b7f4e487b7100000000000000000000000000000000000000000000000000000000600052601260045260246000fd5b60006127ca82611c19565b91506127d583611c19565b9250826127e5576127e4612790565b5b828204905092915050565b7f4e487b7100000000000000000000000000000000000000000000000000000000600052604160045260246000fd5b61282881611be3565b82525050565b6000604082019050612843600083018561281f565b6128506020830184611d6f565b9392505050565b7f4465706f7369747320617265206e6f7420616c6c6f77656420616e796d6f7265600082015250565b600061288d602083612081565b915061289882612857565b602082019050919050565b600060208201905081810360008301526128bc81612880565b9050919050565b7f596f75206d757374206465706f73697420736f6d652045746865720000000000600082015250565b60006128f9601b83612081565b9150612904826128c3565b602082019050919050565b60006020820190508181036000830152612928816128ec565b9050919050565b7f4e6f206665652062616c616e636520617661696c61626c6520666f722077697460008201527f6864726177616c00000000000000000000000000000000000000000000000000602082015250565b600061298b602783612081565b91506129968261292f565b604082019050919050565b600060208201905081810360008301526129ba8161297e565b9050919050565b7f4e487b7100000000000000000000000000000000000000000000000000000000600052603160045260246000fdfea2646970667358221220b327b83e4fe8d6beda9c1dc87bc08980041adc51ac94558219291f5f2bea50b564736f6c63430008130033",
  "linkReferences": {},
  "deployedLinkReferences": {}
}